:1000000027C040C03FC03EC03DC092C23BC03AC0C6
:1000100039C038C037C036C035C034C033C0000026
:100020000000360001020000040000000000000093
:100030000000380000000000370002020202020245
:1000400002020202010204081020200410084604E3
:1000500011241FBECFE5D2E0DEBFCDBF20E0A0E679
:10006000B0E001C01D92AA3FB207E1F710E0C8E27C
:10007000D0E003C02197FE01A6D5C732D107D1F742
:10008000A1D2A7C5BDCF4F925F926F927F928F9200
:100090009F92AF92BF92CF92DF92EF92FF920F9317
:1000A0001F934091EC005091ED004F5F5F4F60E077
:1000B000C12CD12C760188248A94982CA82CB12CA0
:1000C00080E090E0DC01262F30E0421753078CF1EE
:1000D000220F331F220F331FF901ED58FF4F4384C6
:1000E000548465847684481459046A047B0424F497
:1000F00083849484A584B684F901ED58FF4F43842A
:10010000548465847684C414D504E604F70424F486
:10011000C384D484E584F6842D583F4FF9010385C8
:10012000148525853685800F911FA21FB31F6F5F31
:10013000CACF88199909AA09BB09BC01CD016C195C
:100140007D098E099F092091DA0004C09595879555
:10015000779567952A95D2F71F910F91FF90EF90B1
:10016000DF90CF90BF90AF909F908F907F906F90D7
:100170005F904F900895823089F018F4813051F0EB
:100180000895833019F0843009F008958CB58F7D7F
:100190008CBD08958AB58F778ABD08958AB58F7D05
:1001A000FBCFCF93DF93282F30E0F901EC5DFF4FB9
:1001B0008491F901EC5BFF4FD491F901E65CFF4FAC
:1001C000C491CC2399F08111D6DFEC2FF0E0EE0F33
:1001D000FF1FE25EFF4FA591B491EC91ED2381E00A
:1001E00090E009F480E0DF91CF91089580E090E005
:1001F000FACF1F93CF93DF93282F30E0F901EC5D06
:10020000FF4F8491F901EC5BFF4FD491F901E65C5B
:10021000FF4FC491CC23A1F0162F8111ACDFEC2F3E
:10022000F0E0EE0FFF1FE25DFF4FA591B4918FB795
:10023000F894EC91111108C0D095DE23DC938FBFA8
:10024000DF91CF911F910895DE2BF8CF3FB7F8943F
:100250008091650090916600A0916700B091680060
:1002600022B708B601FE05C02F3F19F00196A11D67
:10027000B11D3FBFBA2FA92F982F8827BC01CD01F0
:10028000620F711D811D911D42E0660F771F881F4F
:10029000991F4A95D1F708958F929F92AF92BF927E
:1002A000CF92DF92EF92FF924B015C01CFDF6B01A7
:1002B0007C01CCDF6C197D098E099F09683E734073
:1002C00081059105B0F321E0821A9108A108B108D7
:1002D00088EEC80E83E0D81EE11CF11C8114910445
:1002E000A104B10431F7FF90EF90DF90CF90BF9061
:1002F000AF909F908F9008952FB7F8946091610010
:100300007091620080916300909164002FBF089506
:10031000CF92DF92EF92FF92CF938091740041DFF2
:100320008111BFC093DFC090D000D090D100E09089
:10033000D200F090D3006C197D098E099F0960935B
:10034000D4007093D5008093D6009093D7007EDFC1
:100350006093D0007093D1008093D2009093D3002B
:100360001092E600C0E0C12CD12C7601809175007E
:1003700090E04796C817190609F0A4F461E080914F
:10038000730037DF60E08091730033DFC83140F4E1
:100390008091740006DFCC0CDD1CEE1CFF1CC82A0B
:1003A000CF5FE4CF80E8E826C114D104E10491E0F6
:1003B000F90618F021E02093F2002091F8002223A2
:1003C00061F04FEF5FEF6FEF70E0DB01CA018C1956
:1003D0009D09AE09BF096C017D012091CE003091CD
:1003E000CF004091EC005091ED004F5F5F4F24171C
:1003F0003507D1F51092CF001092CE00C114D10470
:10040000E104F104F1F02091E6002F5F2093E60073
:10041000E091CE00F091CF00EE0FFF1FEE0FFF1F17
:10042000ED58FF4FC386D486E586F6868091DC00C2
:10043000882339F08091D9008231E8F48F5F80936E
:10044000D9005ADF6093F3007093F4008093F500B5
:100450009093F6001092F7008091E600CF91FF9004
:10046000EF90DF90CF9008952F5F3F4F3093CF00F4
:100470002093CE00C3CF07DE6093CA007093CB00F9
:100480008093CC009093CD001092D9001092DC00A4
:1004900081E08093E7008091E6008F5F8093E60023
:1004A000D0CF2ADFC090F300D090F400E090F500A8
:1004B000F090F6006C197D098E099F09653671056B
:1004C0008105910518F081E08093F7001092E60015
:1004D000C3CFCF92DF92EF92FF92CF9381E08093D0
:1004E000DC001092D9001092EA0006DF2091E800AB
:1004F0003091E9006B017C01C20ED31EE11CF11C9E
:1005000007DFC82F8091EB0081110AC0F5DEC61607
:10051000D706E806F90620F481E08093EA0002C0DD
:10052000C23071F7CF91FF90EF90DF90CF90089598
:100530001F920F920FB60F9211242F933F938F9318
:100540009F93AF93BF938091610090916200A091BF
:100550006300B09164003091600023E0230F2D37D9
:1005600058F50196A11DB11D209360008093610094
:1005700090936200A0936300B09364008091650043
:1005800090916600A0916700B09168000196A11D4E
:10059000B11D8093650090936600A0936700B093AF
:1005A0006800BF91AF919F918F913F912F910F90D4
:1005B0000FBE0F901F90189526E8230F0296A11DDD
:1005C000B11DD2CF78948AB582608ABD8AB5816028
:1005D0008ABD83B7826083BF83B7816083BF89B7D9
:1005E000826089BF80B7826080BF80B7816080BF32
:1005F000329A319A309A379A8CB580648CBD61E01A
:1006000082E0F7DD8091730090E0FC01EC5BFF4F2E
:100610002491865C9F4FFC018491882399F090E09F
:10062000880F991FFC01EC5CFF4FA591B491FC0170
:10063000E25DFF4F859194918FB7F894EC91E22B96
:10064000EC938FBF8091740090E0FC01EC5BFF4F56
:100650002491865C9F4FFC0184918823C1F090E037
:10066000880F991FFC01EC5CFF4FC591D491FC01F0
:10067000E25DFF4FA591B4919FB7F8948881E22F76
:10068000E0958E2388838C91E823EC939FBF81E0D3
:100690008093750060E080917300ABDD64EF71E0E2
:1006A00080E090E0F9DD28DE6093F3007093F400C1
:1006B0008093F5009093F6001FDE60367940810547
:1006C000910510F425DEF8CF04DF1092E7008CEEE0
:1006D00091E5A6E4B2E48093760090937700A0932E
:1006E0007800B093790088E59AE3A5EABCE38093AB
:1006F0007A0090937B00A0937C00B0937D00E9DEAC
:1007000060ED77E080E090E0C7DD60E082E071DDE1
:1007100061E081E06EDD00E010E0AA24A394B12C3A
:10072000F7DD882361F1AFDC6093EE007093EF009A
:100730008093F0009093F100C090CA00D090CB005D
:10074000E090CC00F090CD006C197D098E099F09D6
:100750001BD120917A0030917B0040917C00509118
:100760007D0075D160936F0070937000809371006D
:100770009093720064E670E080E090E08DDDC090C0
:100780006F00D0907000E0907100F0907200C09106
:100790006D00D0916E0020E030E046E155E4C701E5
:1007A000B601ECD087FF02C0209769F020E030E866
:1007B00049E055E4C701B601E1D087FF39C0C13037
:1007C000D10509F059C060E082E013DD61E081E00D
:1007D00010DD219739F510926E0010926D00809116
:1007E0006D0090916E000197E9F486DDC09069007C
:1007F000D0906A00E0906B00F0906C006C197D095D
:100800008E099F09683B7B408105910558F060E0A7
:1008100081E0EFDC61E082E0ECDC60E177E280E047
:1008200090E03ADD0115110509F47ACFE9DB78CFC4
:1008300020E030E046E155E4C701B60104D187FD70
:10084000CECF61E082E0D5DC61E081E0D2DC64EF14
:1008500071E080E090E020DDCD2B09F6B0926E00D3
:10086000A0926D0049DD6093690070936A008093E7
:100870006B0090936C00B3CF20E030E046E155E48C
:10088000C701B601E0D087FDCDCFDBCFE3E7F0E0D5
:1008900080E090E0A0E8BFE383839483A583B683E0
:1008A00087839087A187B2871092CA001092CB00ED
:1008B0001092CC001092CD001092CF001092CE007A
:1008C0001092D0001092D1001092D2001092D3005A
:1008D0001092D4001092D5001092D6001092D7003A
:1008E00081E08093D8001092D90084E08093DA00F0
:1008F0008093DB001092DC001092DD001092DE008D
:100900001092DF001092E0001092E1001092E200DD
:100910001092E3001092E4001092E5001092E600BD
:100920001092E7002CE83AE03093E9002093E800C9
:100930001092EA001092EB0020E130E03093ED00DD
:100940002093EC001092EE001092EF001092F00055
:100950001092F1001092F2001092F3001092F40045
:100960001092F5001092F6001092F7001092F80025
:100970001092F90093E091838083089540D008F4A9
:1009800081E00895E89409C097FB3EF49095809526
:10099000709561957F4F8F4F9F4F9923A9F0F92F45
:1009A00096E9BB279395F695879577956795B795C3
:1009B000F111F8CFFAF4BB0F11F460FF1BC06F5FA9
:1009C0007F4F8F4F9F4F16C0882311F096E911C0BB
:1009D000772321F09EE8872F762F05C0662371F0DC
:1009E00096E8862F70E060E02AF09A95660F771FF0
:1009F000881FDAF7880F9695879597F90895990FCC
:100A00000008550FAA0BE0E8FEEF16161706E807D8
:100A1000F907C0F012161306E407F50798F0621BF9
:100A2000730B840B950B39F40A2661F0232B242BCE
:100A3000252B21F408950A2609F4A140A6958FEFED
:100A4000811D811D0895DBDF08F48FEF08950AD022
:100A500080C071D028F076D018F0952309F062C0DC
:100A600067C0ABC087D0A8F39923D9F35523C9F346
:100A7000950F50E0551FAA27EE27FF27BB2700241C
:100A80000894679520F4E20FF31FB41F0A1E220F8B
:100A9000331F441FAA1F6695A9F7779530F4F30F0B
:100AA000B41F0A1E121E08F46395330F441FAA1FB9
:100AB000221F769599F7879520F4B40F0A1E121E0F
:100AC000631F440FAA1F221F331F8695A9F7862F85
:100AD000712D602D11249F5750408AF0E1F088233A
:100AE0004AF0EE0FFF1FBB1F661F771F881F915034
:100AF0005040A9F79E3F510570F014C05EC05F3FA3
:100B0000ECF3983EDCF3869577956795B795F79566
:100B1000E7959F5FC1F7FE2B880F911D96958795EE
:100B200097F9089597F99F6780E870E060E008956D
:100B30009FEF80EC089500240A94161617061806F5
:100B40000906089500240A941216130614060506D1
:100B50000895092E0394000C11F4882352F0BB0F62
:100B600040F4BF2B11F460FF04C06F5F7F4F8F4FC5
:100B70009F4F089557FD9058440F551F59F05F3F00
:100B800071F04795880F97FB991F61F09F3F79F0AF
:100B900087950895121613061406551FF2CF469531
:100BA000F1DF08C0161617061806991FF1CF8695B3
:100BB0007105610508940895E894BB276627772797
:100BC000CB0197F90895EE0FFF1F0590F491E02DEA
:060BD0000994F894FFCF28
:00000001FF
